S01D00004652444D5F4B4C34335F4F4C323338355F44656D6F2E73726563D1
S113000000600020E90400002D0500003105000017
S113001000000000000000000000000000000000DC
S11300200000000000000000000000003505000092
S11300300000000000000000390500003D0500003C
S11300404105000045050000490500004D0500007C
S113005029050000290500002905000029050000E4
S11300605105000055050000590500005D0500001C
S11300706105000065050000690500002905000010
S113008029050000290500002905000029050000B4
S11300902905000029050000290500006D05000060
S11300A02905000029050000290500002905000094
S11300B0F948000029050000B54800008D480000FB
S1130400FFFFFFFFFFFFFFFFFFFFFFFFFE3FFFFFB9
S113041010B5064C2378002B07D1054B002B02D0D6
S1130420044800E000BF0123237010BD70E0FF1FEB
S113043000000000A89B000008B5084B002B03D067
S11304400748084900E000BF07480368002B03D0B1
S1130450064B002B00D0984708BDC04600000000A2
S1130460A89B000074E0FF1F6CE0FF1F0000000069
S1130470164B002B00D1144B9D46402292029A1A2F
S1130480924600218B460F461348144A121A08F06C
S11304901EF80F4B002B00D098470E4B002B00D0BA
S11304A098470020002104000D000D48002802D0C8
S11304B00C4800E000BF07F0DBFF2000290004F037
S11304C0B3FB07F0BFFFC046000008000060002037
S11304D0000000000000000070E0FF1F10EAFF1F92
S11304E0000000000000000072B6084808490160DE
S11304F0084880470849094A094B9B1A03DD043B15
S1130500C858D050FBDC62B60648804708ED00E0CE
S11305100000000081380000D09B000000E0FF1FB5
S113052070E0FF1F710400001148004711480047A4
S11305301148004711480047114800471148004737
S11305401148004711480047114800471148004727
S11305501148004711480047114800471148004717
S11305601148004711480047114800471148004707
S1130570290500002D0500003105000035050000A7
S1130580390500003D050000695800007958000055
S11305908958000099580000C55E0000DD5E000027
S11305A0E56A00001D6B0000B1620000CD6200002E
S11305B0DD5800002966000002B47146490849006C
S11305C0095C49008E4402BC7047C046002934D0FF
S11305D00123002210B488422CD301242407A14211
S11305E004D2814202D209011B01F8E7E400A142CE
S11305F004D2814202D249005B00F8E7884201D369
S1130600401A1A434C08A04202D3001B5C08224340
S11306108C08A04202D3001B9C082243CC08A042B1
S113062002D3001BDC082243002803D01B0901D09D
S11306300909E3E7101C10BC7047002801D0002012
S1130640C04307B4024802A14018029003BDC0464B
S1130650D90000000029F0D003B5FFF7B9FF0EBCA4
S11306604243891A1847C046002941D010B4041CDB
S11306704C40A44601230022002900D54942002809
S113068000D5404288422CD301242407A14204D23D
S1130690814202D209011B01F8E7E400A14204D21D
S11306A0814202D249005B00F8E7884201D3401A34
S11306B01A434C08A04202D3001B5C0822438C0856
S11306C0A04202D3001B9C082243CC08A04202D3C0
S11306D0001BDC082243002803D01B0901D00909B0
S11306E0E3E7101C6446002C00D5404210BC704760
S11306F0002806D003DB0020C043400801E080202E
S1130700000607B4024802A14018029003BDC04687
S1130710190000000029EBD003B5FFF7A7FF0EBCBA
S11307204243891A1847C0467047C0468446101C85
S113073062468C46191C634600E0C0461FB501F0B2
S1130740ABF8002801D40021C8421FBD10B500F049
S1130750DBFF4042013010BD10B501F09DF80028C8
S113076001DB002010BD012010BDC04610B501F012
S113077093F8002801DD002010BD012010BDC04603
S113078010B501F00BF8002801DC002010BD012099
S113079010BDC04610B501F001F8002801DA0020B0
S11307A010BD012010BDC046002B15D1002A13D165
S11307B0002900D1002807D003DB0020C0434108F2
S11307C002E080210906002007B4024801A1401874
S11307D0029003BD55FFFFFF03B4684601B50298BC
S11307E000F0C6F8019B9E4602B00CBC7047C046A0
S11307F0002B11D1002A0FD1002900D1002802D0EA
S11308000021C943081C07B4024802A14018029001
S113081003BDC04615FFFFFF03B4684601B5029847
S113082000F0C2F8019B9E4602B00CBC7047C04663
S11308309C460304F0B51B0C17043F0C150C1E1C3E
S1130840041C000C7E436B4347434543FB18300CA8
S11308501818874202D980235B02ED18030CED18A7
S113086063465C434A433604360CA11800048019DD
S11308704919F0BD0000000038B50E4B0C4A041CA9
S11308800D1CFFF787FF002804D1201C291C01F050
S113089045FE38BD074B064A201C291C01F00AFB03
S11308A001F03CFE80231B06C018F2E7C046C04698
S11308B0000000000000E04138B50E4B0C4A051C56
S11308C00C1CFFF749FF002804D1281C211C00F050
S11308D013F838BD80231B06E118281C00F00CF81F
S11308E0021C0B1C002150429941F2E7C046C0464D
S11308F0000000000000000070B50E4B0C4A0D1CF7
S1130900041C01F047F8FFF7B7FF061C01F078FE5E
S1130910094A0A4B01F03EF8021C0B1C201C291C3E
S113092001F0C8FAFFF7A8FF311C70BDC046C046ED
S1130930000000000000F03D000000000000F04155
S113094070B5061C081C01F01DFE084B064A01F098
S113095021F80D1C041C301C01F052FE2B1C221C1F
S113096000F08CF870BDC046000000000000F041AB
S1130970F0B583B0161C1F1C0090019101F0E4FE39
S1130980041C0D1C221C2B1C301C391CFFF750FFAF
S1130990009A019B121A8B410899201C0A604B6033
S11309A0291C03B0F0BDC046F0B583B0141C1D1C57
S11309B00090019102F0A4F8221C2B1C061C0F1CB1
S11309C0FFF736FF009A019B121A8B410899301CDD
S11309D00A604B60391C03B0F0BDC04610B5041E5C
S11309E033D001F093FE9E231B1A962B09DC0838A2
S11309F084406402640ADBB26402DB05600A1843C3
S1130A0010BD992B0ADD0522121A211CD1400A1CA3
S1130A10011C1B318C40611E8C411443052801DDEF
S1130A20421F9440144A2240610704D00F210C4015
S1130A30042C00D0043251010AD59F23181AFF2830
S1130A4016D09401640AC3B2D6E700230024D3E786
S1130A50D208FF2B03D05402640ADBB2CCE7002A8D
S1130A6006D08024E40314436402640AFF23C3E72A
S1130A70FF230024C0E7C046FFFFFFFBF8B55F4635
S1130A80564644464D46F0B40C034D00CE0F610A61
S1130A90440F2143C400180380465800400D824689
S1130AA0D80F84464046400A530F0343D0006D0DCF
S1130AB0371C83465246664500D1A4E0AF1A002F86
S1130AC000DC09E1002A3BD1184300D0EAE06307C7
S1130AD000D187E00F232340042B00D182E0221DA4
S1130AE0A242A4416442802309191B040B40371C11
S1130AF0141C002B00D17CE0CE4B01359D4200D16B
S1130B0005E1CD4BE40819404807490204430B0BA7
S1130B10002000211B031A0B0B0D6D051B0513434D
S1130B206A08C64DFF071D4015436D006D08291C5A
S1130B303943201C3CBC90469946A246AB46F8BDBE
S1130B40BC488542C3D0802000040343382F00DD15
S1130B50F0E01F2F00DD24E12020C01B1A1C814679
S1130B6082405846F8400243944658464A469040CC
S1130B70421E9041FB40624602431F1CA21A94424B
S1130B80A4416442C91B091B141C0B029FD54902D2
S1130B904F0A002F00D1C8E0381C01F0B7FD021C39
S1130BA0083A1F2A00DDB5E02821091A201C9740C5
S1130BB0C84007439440954200DDB2E0551B691CD0
S1130BC01F2900DDDCE01F22551B3B1C221CAB400F
S1130BD0CA40AC40651EAC411343CF401C43391C92
S1130BE0002574E780231B040B40371C002B00D026
S1130BF082E7904B4807E4080443C9089D4248D063
S1130C0009030B0B84E7AA1A9446002A00DC98E037
S1130C105046002852D08748854200D157E78020AB
S1130C20000403436246382A00DDFCE01F2A00DD8D
S1130C304AE120226046101A1A1C824082469146DC
S1130C4058466246D0404A46024390465846524669
S1130C509040421E9041424602436046C3401219EE
S1130C60A242A441644259180919141C080200D470
S1130C702DE7704B01359D4200D122E16E4B600897
S1130C801940012323401C1C0443CB071C4349087F
S1130C901DE7231C0B433AD080231B030B431B0388
S1130CA01B0B35E7013F002F65D15846221A9442A9
S1130CB0A4416442C91A091B141C66E75846184328
S1130CC000D104E70122524294446046002800D037
S1130CD0C5E058460219C3E7002F73D1681C4005CC
S1130CE0400D012800DCDEE05A46A21A9442BF41BE
S1130CF0C81A7F42C71B380200D489E05A46141B25
S1130D00A3459241591A52428F1A664641E700237D
S1130D100024FDE6271C283887400024954200DC87
S1130D204CE74549AD1A3940D1E6201C01F0EEFCF0
S1130D30203034E75A461A43531E9A41D2B2002750
S1130D401CE7002A00D0DCE0681C4205520D012A91
S1130D5000DC8DE0374DA84200D1F3E05D462A194E
S1130D60A242A441644259180919CC0752081443F9
S1130D704908051CABE62F48854200D0E6E6A6E606
S1130D802B1C1F3B3A1CDA40131C20296CD03F2239
S1130D90551BAF403C43601E84411C430021002589
S1130DA095E6381C20381A1CC240101C202F5DD038
S1130DB04022D71BBB405A461A43531E9A41024352
S1130DC00027DBE6002D3BD01A4DAA4500D193E065
S1130DD080252D047F422943382F00DDACE01F2FEE
S1130DE000DD29E12025ED1B081C261CA840FE403F
S1130DF0AC400643651EAC413443F9405D462C1BB0
S1130E00A34592415B1A5242991A55466646BCE67E
S1130E10131C3B43141C002B00D0BAE6002700210E
S1130E2000250024E5E65A461A43531E9A41D2B2DD
S1130E30002314E7FF070000FFFF7FFFFFFF0F8081
S1130E400D1C254358D0FF43002F51D1041BA3454B
S1130E509241591A5242891A5546664695E6964871
S1130E60854200D0DEE632E6002793E70023A2E7BE
S1130E70081C2043002D00D0C4E0002800D1F7E076
S1130E805846184300D122E658460219A242A4410A
S1130E90644259180919141C0A0200D417E6874B36
S1130EA00125194013E6081C2043002D39D10028E0
S1130EB071D15946194303D0191C5C46664606E6AF
S1130EC000270021002494E6604620381A1CC24002
S1130ED060469146202800D1ACE04022121A93408B
S1130EE05A461A43531E9A414B461A430023B6E608
S1130EF0714DAA4500D06FE7191C5C4655466646FD
S1130F00E5E5002D22D10D1C254377D0D543002DD6
S1130F1071D15C445C459241591852428918554636
S1130F20A4E600284DD15946194300D194E0191C78
S1130F305C466646604DCAE50C43611E8C41E4B2D2
S1130F4000215BE7051C0021002452E65A4DAA4506
S1130F5054D05542802210040143382D00DD81E035
S1130F601F2D00DD92E02022501B0A1C8446824083
S1130F70201CE8400243904662469440601E84412F
S1130F8042461443E9405C445C459241CB185242CA
S1130F90991855466AE65846184300D197E55846CD
S1130FA0271ABC429241C81A5242801A020266D5DC
S1130FB05846041BA3459241591A5242891A66465F
S1130FC085E55846184333D04807E4080443802095
S1130FD0C9080003014208D0DD08054205D159467D
S1130FE0CA085C071443291C6646630FC9001943E9
S1130FF0E400314D6BE5304A9245AED1191C5C4694
S1131000554664E5002836D05846184310D080254C
S11310104807E408C9082D0304432942E5D0D80849
S11310202842E2D15D46EA085C071443011CDCE770
S1131030214D4CE5002353E73D1C203D0A1CEA40AA
S1131040151C202F34D04026F71BB9400C43611ED9
S11310508C412C430021D1E680210027C903164D81
S11310600024C6E50C43611E8C41E4B200218AE7EA
S1131070191C5C462BE5191C5C460F4D27E5031C27
S11310803B4300D11CE7011C3C1C20E520204042CE
S113109040190A1CC2409046202D0BD04020451B0D
S11310A0A9400C43611E8C4145462C4300216AE74C
S11310B00021CBE70021F4E7FF070000FFFF7FFFDB
S11310C0F0B5564644465F464D46F0B41F1C0B032C
S11310D01B0B98464B0087B0041C81465B0DC80F60
S11310E0161C9A460090002B51D06A4B9A4531D079
S11310F08022414652030A43630FD2001A43664BCF
S113110090460025E20091469A44002402953B0350
S11311101B0B9B46FD0F7B00311C5B0D019560D0C2
S11311205C4A934254D08021584649030143720FCC
S1131130C9001143584A8B469B18F1000020009ABD
S113114004436A4003920F2C00D9ADE0534EA4002F
S11311503459A746404604436ED100210225082491
S1131160884689460295D2E7009C0298C3464946C0
S11311700194022864D0032800D1ABE2012800D0F6
S113118038E2019A002402400025A14660E043466B
S113119023434AD04046002800D1C0E101F0B6FA0A
S11311A0031E272B00DDB3E128210D1A211C083B67
S11311B04246E9409A400D1C1543221C9A40A84619
S11311C09146374B00251B1A9A46002402959EE748
S11311D05A4616430320002EB1D1B3460021022003
S11311E0ADE75A4632431BD05B46002B00D18AE15F
S11311F0584601F08BFA272800DD7DE12822171AD2
S1131200011C321C08395B46FA408B40171C1F43F3
S1131210331C8B40BB46191C214B1B1A00208EE744
S11312200027BB460021012089E700200125042472
S11312308046814602956AE703250C24029566E7F9
S1131240019C0394039D01222A400024114DA146D0
S1131250002000212403260B0C0D2405114B3443DC
S11312602D0523402B435B005B08D207191C48461D
S1131270114307B03CBC90469946A246AB46F0BD2C
S11312800022802424039146024DE1E70024002536
S1131290A146DDE7FF07000001FCFFFFF884000022
S11312A00DFCFFFFFFFF0F805546ED1A0495D8454E
S11312B000D953E100D14EE1049C0025013C4E4687
S11312C004944746A946584603020C0E1C430902DF
S11312D0250C23041B0C0091381C291C0193FFF7D7
S11312E075F9019983464143381C8A46291CFFF746
S11312F0B1F9330C090419438A450CD95B46091921
S1131300013B8C4200D947E18A4500D844E10222DE
S11313105242934409195346CB1A181C291C984667
S1131320FFF754F9071C0198291C7843824640466C
S1131330FFF790F936040B04360C33439A4509D968
S11313401B197A1E9C4200D924E19A4500D821E158
S1131350023F1B195E4632041743380CBB46009EFD
S1131360009F51463F0C32045B1A5946BA46120C90
S11313700F043F0C904651467A434F434146414344
S113138056467043CF19160CBE19B14202D98027B4
S11313907F02C019310C12043604120C4018B6181E
S11313A0834200D2C4E000D1BEE0191A4846861B2D
S11313B0B145BF417F42CF1BA74200D113E1291C95
S11313C0381CFFF703F9019902904143381C894600
S11313D0291CFFF73FF9330C0904194389450CD93B
S11313E0029B0919013B8C4200D9FFE0894500D8D2
S11313F0FCE0029F0919023F02974F46CF1B381C9D
S1131400291C0597FFF7E2F8071C0198291C78436B
S113141081460598FFF71EF936040904360C0E437D
S1131420B14509D936197B1EB44200D9E0E0B14573
S113143000D8DDE0023F3619029D4946761A290498
S113144039430B0457460A0C1B0C40464546584387
S113145055437B437A43EB18070CDB199D4202D9B1
S113146080256D0252191D0C00041B04000C521936
S11314701B18964235D300D1FCE001231943049E86
S1131480994FF519002D00DCA1E0480709D00F237E
S11314900B40042B05D00B1D8B42894149428B44E0
S11314A0191C5A46D20107D5904B5C46049E8027EE
S11314B01C40FF00A346F5198D4B9D427ADD039C29
S11314C00122224000248B4DA146C1E6802424033E
S11314D0474627424CD13C432403240B009A854DB4
S11314E0B6E63619481EB4425ED9011C9642C4D1F0
S11314F0009E9E42C1D1C2E7031C283B311C994087
S11315008B46002188E6301C01F000F9203072E699
S1131510283B211C994000228846914651E6201C14
S113152001F0F4F820303BE60021B14500D33DE75B
S1131530009F5A46B944B945BF417F423F19FB1841
S1131540013A9C421ED2984200D97EE000D1B5E017
S1131550191A93462AE7894500D8ADE64846464617
S113156042467708D3074608C0071E438146AAE6C9
S11315705846204212D1044324032A1C240B8946D2
S11315805C4D65E6A342E3D1009F4F45DBD9211AA8
S113159093460BE7171CDDE69B46BCE63C4324035D
S11315A0240B009A534D53E6B24259D800D18AE035
S11315B0011C62E75F46C9087B07039E0B437C025C
S11315C06D0501229946240B6D0D324040E64A4BCD
S11315D0049FDB1B382B10DD039C012222400024D6
S11315E00025A14634E60121494248E7029304E775
S11315F01F1C21E7019C039441E71F2B40DC3F485B
S1131600049F0C1C3A1858469140DC4090402043FB
S11316100A1C511E8A41011C11435A46DA40131C0C
S1131620480709D00F220A40042A05D00A1D8A421D
S1131630894149425B18111C1A0234D5039C0122CA
S1131640224000240125A14602E6009F02214942CE
S1131650B9448B44B945894149420919CB18A4E6D8
S1131660009D881E6900A942AD416D422C193619AE
S113167000913AE7002B00D033E70024009437E7C9
S11316801F4A049C5D46121BD5402A1C202B1FD0E8
S11316901C4E5F46A3199F403B1C19434B1E9941A6
S11316A011430023BCE75A07C9080A43039F914624
S11316B05B0201221C0B3A400025C9E54E45C4D803
S11316C09346002172E6009F9F42C9D3011C0FE795
S11316D00023E2E7802424035F463C432403240BD5
S11316E0019A8946034DB3E5FF030000FFFFFFFEA7
S11316F0FE070000FF07000002FCFFFF1E040000BD
S1131700E2FBFFFF3E040000F0B55F4656464D463F
S11317104446F0B40D1C041C8046E80F81461803AF
S11317200F03000B3F0B83B084461B48009749000E
S11317305E00DF0F490D9246760DBB4681420CD008
S11317401548864210D00120B14215D003B03CBCEC
S113175090469946A246AB46F0BD009F0120274320
S1131760F4D10D488642EED1604602430120002A9E
S1131770ECD10120B142E9D1009B6345E6D1D045CB
S1131780E4D1D94506D00029E0D11C43201C441ED5
S1131790A041DBE70020D9E7FF070000F0B55F4672
S11317A056464D464446F0B4CD0FDE0FAC461D03FD
S11317B02D0BB146374E0F034C00AB465D008046FF
S11317C03F0B640D92466D0DB44232D0314EB5429A
S11317D035D0002C0ED1384341424141081C002D24
S11317E00BD0002919D1CC452DD065466842012380
S11317F0184318E0002DF6D1281C59460A435342D9
S11318005341002806D1002BEDD0634658420123F2
S1131810184308E00020002B05D14A4650425041AD
S11318204042012318433CBC90469946A246AB462D
S1131830F0BD3E1C0643C9D002204042F3E75E4699
S11318401643C6D0F8E7AC4207DC0BDA61464842DF
S11318504841404201231843E5E7664670420123AC
S11318601843E0E75F450AD80ED000205F45DAD27E
S1131870654668426841404201231843D3E7624603
S1131880504201231843CEE7D045F8D80020D04574
S1131890EED3C8E7FF070000F0B556464D46444670
S11318A05F46F0B40D1C83B0041C0190E80F814620
S11318B018030F03000B3F0B84463548009749007B
S11318C05E00DF0F490D9246760DB846814234D052
S11318D02F48864236D0002918D0002E1FD1341C40
S11318E067463A4353425341002C1FD00020002B3B
S11318F005D142465042504140420123184303B0AF
S11319003CBC90469946A246AB46F0BD00980443C1
S113191060426041041C002EE2D00028E9D1C14598
S113192015D04F46784201231843E8E7002BF6D040
S11319304B46584201231843E1E7009F0220274306
S1131940DDD1C5E7674602201743D8D1C3E7B142CA
S113195004DD4A46504201231843D0E7B14207DB75
S113196000986045E4D80AD0009F00206745C6D29D
S11319704F4678427841404201231843BFE7019A19
S11319805245D5D8019A00205245F1D3B7E7C04655
S1131990FF070000F0B5564644465F464D46F0B496
S11319A01F1C0B031B0B9A464B0087B0041C80467C
S11319B05B0DC80F161C02938146002B68D0694B3F
S11319C00299994232D08022534652031A43D200DC
S11319D0630F1A439246644AE000891880460291D4
S11319E0002400253B031B0B9B467800FB0F321C95
S11319F0400D039300D175E05A4B984269D0802280
S1131A00594652030A43730FD2001A43564B934666
S1131A10C018F200002303994E4671401C430F2C5A
S1131A2000D9A9E0514EA4003459A74653461C439B
S1131A3000D087E00025AA46A84608240225D1E75D
S1131A404946022D6CD0032D00D117E2012D00D0A0
S1131A5058E10D40EDB20024A9460023A046002021
S1131A60002125030A0D1C052D0B1205404B2A43AA
S1131A70134023435B004C465B08E207191C4046B5
S1131A80114307B03CBC90469946A246AB46F0BD14
S1131A905346234350D05346002B00D184E1504693
S1131AA000F034FE031E272B00DD76E128210D1AF9
S1131AB0211C083B5246E9409A400D1C1543221C48
S1131AC09A40AA4690462B4B00241B1A02930025E9
S1131AD088E75B461E430323002E9CD1B3460022B5
S1131AE0022398E75B46334321D05846002800D1AF
S1131AF04EE100F00BFE272800DD42E128210F1AF9
S1131B00021C311C083A5B46F94093400F1C1F43EA
S1131B10331C9340BB461A1C164B181A00237AE751
S1131B2001230B4000249946A0460E4B97E700275B
S1131B30BB46002201236EE7002104248A4688461E
S1131B4001254FE70C2403254CE700258024A946F2
S1131B502403A846034B82E7DA46904603991D1CEA
S1131B606FE7C046FF07000001FCFFFF3885000057
S1131B70FFFF0F800DFCFFFF029F160C3818049026
S1131B804046070C0004000C1204120C031C5343BF
S1131B90041C3D1C7443554398463B1C7343641911
S1131BA0A44644460293230C63449D4204D9029DF7
S1131BB0802464022D1902951D0C039545462C04BE
S1131BC01B04240C1C1905945C46230C051C584367
S1131BD02404240C8446381C604365435F438146D7
S1131BE0CC44280C6044BB46814502D980277F023F
S1131BF0BB442D04070C2D0C000440195546BC466B
S1131C002F04E3448446280C3D0C2F1C5743B8464C
S1131C102F1C77434243B94647463F0C9144BA468A
S1131C20D14446434A4502D980225202B6184F464F
S1131C303A0CB6183A0447463F043F0CB8462F1CEA
S1131C4067435D434443584365190190380C2D188C
S1131C504244B846AC4204D9019880235B02C018C0
S1131C600190039C029F201C6044C0196045A4415C
S1131C7047466442A4462B043C049946240C4C4435
S1131C80A046D8448018C246E24490429241574646
S1131C9052429146F219E245BF417F424B46BC464F
S1131CA0D845BF41D4187F4263461F432D0C7F198A
S1131CB0B24292414C45AD4152426D421543019EA0
S1131CC07D19AB19E20D5B02059F134342023A43AF
S1131CD09A46531E9A41C30D101C184364022043B4
S1131CE080465046C0010DD5454601225646049C07
S1131CF06B082A401A43F30701341A437608049404
S1131D009046B246049E634FF319002B61DD4046B2
S1131D1040070BD00F2244462240042A06D04246F4
S1131D200432424580414042824490465546ED018A
S1131D3007D5594B5646049F80201E40C000B2462A
S1131D403B18564A934200DDEAE644465546E2080B
S1131D506807104301226C025B050A408046240B8D
S1131D605B0D91467BE6DA4690461D1C69E68024AD
S1131D702403574627421CD13C432403240B484BDD
S1131D806DE6031C283B311C99408B460022C3E6B8
S1131D90301C00F0BBFC2030ADE6283B211C9940F0
S1131DA000228A4690468EE6201C00F0AFFC2030CC
S1131DB078E65846204207D1044303992403240BB0
S1131DC089469046364B4AE63C432403240B344B65
S1131DD045E6344B049E9B1B382B06DD01230B4048
S1131DE000249946A046002339E61F2B25DC049CD9
S1131DF02D4D46466019524644468640DC4082409A
S1131E005746301C2243DF40441EA04102433B1C82
S1131E10540709D00F201040042805D0101D90420B
S1131E20924152429B18021C1D021AD501230B40F9
S1131E3000249946A046012311E61C48049C5546FB
S1131E40001BC540281C202B16D0194E5746A2193A
S1131E5097403A1C43461A43531E9A4102430023B7
S1131E60D6E758075B02D2081C0B01230B40104332
S1131E70994680460023F2E50022EBE78024240300
S1131E8050460123044319402403240B8946044B80
S1131E90E5E5C046FF030000FFFFFFFEFE0700006C
S1131EA0FF07000002FCFFFF1E040000E2FBFFFF2F
S1131EB03E040000F8B55F46564644464D46F0B42D
S1131EC00C034D00CF0F610A440F2143C4001803D3
S1131ED0DE0F8046B44646465800760A530F334315
S1131EE0D600D14A6D0DBA46400DB346904200D19A
S1131EF0F5E06246012672409446674500D1ABE0A6
S1131F002F1A002F00DC11E100283ED15846184357
S1131F1000D0F1E0600700D197E00F232340042BA9
S1131F2000D122E1221DA242A44164428023091966
S1131F301B04012750460B400740141C002B00D102
S1131F4079E0B94B01359D4200D10BE1B74BE40870
S1131F5019404807490204430B0B002000211B03CE
S1131F601A0B0B0D6D051B0513436A08B04DFF07D3
S1131F701D4015436D006D08291C3943201C3CBCD1
S1131F8090469946A246AB46F8BDA7488542C1D0C3
S1131F90802000040343382F00DDFDE01F2F00DD07
S1131FA031E12020C01B1A1C5E468240FE403243B1
S1131FB094465A468240101C421E9041FB406246A1
S1131FC002431F1CA21A9442A4416442C91B091B68
S1131FD0141C0A029ED549024F0A002F00D1D6E0F4
S1131FE0381C00F093FB021C083A1F2A00DDC3E0F2
S1131FF02821231C091A9740CB401F439440954243
S113200000DDC0E0551B691C1F2900DDEAE01F222A
S1132010551B3B1C221CAB40CA40AC40651EAC4166
S11320201343CF401C43391C002573E780217E4DA8
S11320300027C90300247C4B4807E4080443C9086B
S11320409D4250D009030B0B87E780231B04012713
S113205052460B40174071E72A1A9446002A00DCC6
S1132060A1E0002854D07048854200D152E7802076
S1132070000403436046382800DD0EE11F2800DD1C
S113208057E162462020801A1E1C8640B1465E46F7
S1132090D6404A4632435E4686409046301C421E35
S11320A09041424602436046C3401219A242A441F1
S11320B0644259180919141C080200D42AE75A4B1F
S11320C001359D4200D131E1584B6008194001238C
S11320D023401C1C0443CB071C4349081AE71E4336
S11320E000D00AE705E7231C0B433BD080231B03E6
S11320F00B431B031B0B30E7013F002F6DD15E46E2
S1132100A21B9442A4416442C91A091B141C60E72F
S11321105846184300D1FDE601267642B444604691
S1132120002800D0D0E05E463219BFE7002F00D06F
S113213080E0681C4005400D012800DCE8E05A46B8
S1132140A21A9442BF41C81A7F42C71B3E0200D460
S113215098E05846041BA3459241591A52428F1ADB
S1132160E2463AE700230024F7E680231B04012714
S113217056460B403740E1E6271C283887400024A8
S1132180954200DC3EE72949AD1A3940C2E6201CDD
S113219000F0BCFA203026E75A461A43531E9A41EF
S11321A0D2B200270EE7002A00D0DEE0681C460504
S11321B0760D012E00DC90E01B4DA84200D1F5E025
S11321C05E463219A242A441644259180919CC0747
S11321D0520814434908051C9CE61348854200D064
S11321E0D9E697E62B1C1F3B3E1CDE40331C2029FE
S11321F06FD03F22551BAF403C43601E84411C43BB
S11322000021002586E6381C20381E1CC640301CE0
S1132210202F60D04022D71BBB405A461A43531E7E
S11322209A4102430027CDE6FF070000FFFF7FFF2E
S1132230FFFF0F80002D37D0B64DA84200D18FE0AC
S113224080252D047F422943382F00DDA8E01F2F6D
S113225000DD24E12025ED1B0E1CAE40B046261CFB
S1132260FE404246AC401643651EAC413443F9403F
S11322705A46141BA34592415B1A5242991A051CF3
S1132280E246A6E6131C3B43141C002B00D0A4E634
S11322900027002100250024CDE65A461A43531E88
S11322A09A41D2B2002300E70D1C254358D0FF43C6
S11322B0002F51D15A46141BA3459241591A524238
S11322C0891A051CE24684E69248854200D0D1E68C
S11322D020E6002790E700239FE7081C2043002DF9
S11322E000D0C2E0002800D1EFE05846184300D1E6
S11322F010E658460219A242A44164425918091929
S1132300141C0A0200D405E6834B0125194001E69A
S1132310081C2043002D38D100286FD15946194399
S113232003D0191C5C46E246F4E500270021002492
S113233081E6604620381A1CC2406646101C202ED6
S113234000D1AAE04022921B93405A461A43531EDE
S11323509A4102430023A8E66E4DA84200D073E7D9
S1132360191C5C46051CE246D4E5002D22D10D1C47
S1132370254376D0D543002D70D15C445C45924111
S1132380591852428918051C96E600284CD1594622
S1132390194300D14AE6191C5C46E2465D4DB9E595
S11323A00C43611E8C41E4B2002161E7051C00214D
S11323B0002440E6574DA84253D0554280221604CB
S11323C03143382D7BDC1F2D00DD8CE02022561B91
S11323D00A1CB446B240261CEE4032439046624684
S11323E09440661EB44142461443E9405C445C4553
S11323F09241CB1852429918051C5DE65846184381
S113240000D187E55E46A71BBC429241C81A5242DE
S1132410801A060260D55846041BA3459241591AF6
S11324205242891AE24675E55846184333D04807A4
S1132430E40804438020C9080003014208D0DD08F1
S1132440054205D15946CA085C071443291CE246D3
S1132450630FC9001943E4002E4D5BE52D4A9042F9
S1132460AFD1191C5C46051C54E5002830D05846F1
S1132470184310D080254807E408C9082D030443F5
S11324802942E5D0D8082842E2D15D46EA085C0733
S11324901443011CDCE71F4D3CE5002355E73D1CBC
S11324A0203D0E1CEE40351C202F2ED04026F71B5D
S11324B0B9400C43611E8C412C430021D8E60C43E7
S11324C0611E8C41E4B2002190E7191C5C4621E5B1
S11324D0191C5C460F4D1DE5031C3B4300D124E74A
S11324E0011C3C1C16E52026764276190A1CF24093
S11324F09046202D0BD04026751BA9400C43611E2D
S11325008C4145462C43002170E70021D1E700218E
S1132510F4E7C046FF070000FFFF7FFF70B50B1C08
S1132520124C09030E0B5900021C490DDD0F00204B
S1132530A14211DD0E4881420FDC80204003064396
S11325400C48401A1F280BDD0B4A521AD640321C85
S11325505042002D00D1101C70BD084BE818FBE759
S1132560074BC240C9188E403243F1E7FE03000016
S11325701D0400003304000013040000FFFFFF7F6C
S1132580EDFBFFFFF8B5041E31D0C70F00D0444265
S1132590201C00F0BBF8184D2D1A0A2819DD0B3841
S11325A0844024036D05240B6D0D3A1C0026002085
S11325B000210B0D2403240B1B0523430F4C2D0575
S11325C01C402C4364006408D307211C301C1943AD
S11325D0F8BD061C1536231CB3401E1C0B23181A09
S11325E0C44024036D05240B6D0D3A1CDFE7002263
S11325F0002500240026DAE71E040000FFFF0F80F8
S113260010B5041E28D000F081F8154A121A0A28C1
S113261015DD0B38844024035205240B520D00238E
S1132620002000212403181C0B0D240B1B0523433D
S11326300C4C12051C4014436400610810BD031CBB
S11326401533211C99400B1C0B21081AC440240388
S11326505205240B520DE3E7002200240023DFE798
S11326601E040000FFFF0F8043001B0E5A1C410292
S1132670D2B270B54C0AC50F012A17DDE0229200D0
S11326806407090B9818002200231E0D221C340530
S11326900C431B49400540082140014349004908B7
S11326A0ED070B1C2B43101C191C70BD002B15D1FE
S11326B0002C1CD0201C00F029F80A281ADC0B215D
S11326C0091A231CCB40191C031C15339C400D4BC9
S11326D00903181A4005090B400DD4E7002C03D058
S11326E06407090B0848CEE707480021CBE7002020
S11326F00021C8E7011C0B398C40211C0024E6E7AB
S1132700FFFF0F8089030000FF0700001C21012345
S11327101B04984201D3000C10391B0A984201D3C0
S1132720000A08391B09984201D30009043902A29E
S1132730105C40187047C046040302020101010105
S11327400000000000000000F0B544465F46564615
S11327504D46F0B41C1C85B0002900DADBE00F1CE8
S11327600021061C8A46101C191C002C00DAC9E042
S11327700196009089468046002951D1B84200D87C
S113278071E0FFF7C3FF002809D020234546311C20
S11327901B1A85408740D940A8460F4386404246CD
S11327A0150C13041B0C291C381C9B46FDF70EFF4B
S11327B05B464343041C291C381C9946FDF74AFF19
S11327C0330C08041843814509D94044631E8045ED
S11327D000D978E1814500D875E1023C404449467E
S11327E0411A8946081C291CFDF7F0FE5A4642434B
S11327F0071C291C48469346FDF72CFF36040904A0
S1132800360C0E43B34507D946447B1EB04502D867
S1132810023FB34500D81F1C24042743002403E0CF
S1132820B94211D9002400275246381C211C002A21
S113283003D03B1C00215842A14105B03CBC90464A
S11328409946A246AB46F0BD081CFFF75FFF041E85
S113285000D0BFE0B94500D242E1019D0099071CB8
S11328608D424741E0E7002804D101200021FDF713
S1132870ADFE80464046FFF749FF002852D141464D
S113288044460B043C1B1B0CA3460D0C0093012473
S1132890291C5846FDF79AFE009F81464743291C90
S11328A05846FDF7D7FE330C090419438F4208D963
S11328B04B464144013B884502D88F4200D91AE176
S11328C09946C91B8B46081C291CFDF77FFE009BFB
S11328D0291C4343071C58460093FDF7BBFE3604EE
S11328E0009D0904360C0E43B54207D946447B1EAD
S11328F0B04502D8023FB54200D81F1C49460E0419
S1132900374391E75246D243031C0C1C92460021E4
S11329105842A1412CE7002746428F4101214942F8
S11329208A4620E720231B1A4246351C82403C1C61
S1132930DD40DC4087402B1C150C3B43291C8640A2
S1132940201C009317049046FDF740FE3F0C011C29
S1132950794381468B46201C291CFDF77BFE009C95
S11329600904230C19438B450CD94B464144013BC4
S1132970884500D9BDE08B4500D8BAE00222524216
S1132980914441445C460C1B201C291C0194FDF716
S11329901DFE391C4143041C8B460198291CFDF77C
S11329A059FE009A090413041B0C19438B4509D9D9
S11329B04144631E884500D997E08B4500D894E0D4
S11329C0023C41445B46CB1A49469B460B041C43DC
S11329D000975DE7009D20231B1A4A468240DD4094
S11329E01543391C009AD94082408846311C009214
S11329F0D9403A1C82400B1C134301932F0C2B0427
S1132A001B0C391C40460293FDF7E0FD029A8146F7
S1132A104243391C40469346FDF71CFE019A0904C3
S1132A20130C19438B450AD94B464919013B8D4276
S1132A305DD88B455BD902235B42994449195A46B8
S1132A408A1A101C391C0392FDF7C0FD029B8046B4
S1132A504343391C03989B46FDF7FCFD019A090486
S1132A6013041B0C19438B450AD943464919013BEE
S1132A708D4238D88B4536D902235B429844491994
S1132A805D464D1BAB464946009D0F044246174325
S1132A902A04120C3B042D0C1B0C380C111C59433A
S1132AA042436B436843D3180D0C5B198C469A421E
S1132AB002D98022520280181D0C401983450CD380
S1132AC003D00024B0E61C1C89E665462A041B04D6
S1132AD0120C9B18A6409E42F3D2013F0024A3E6A9
S1132AE000240127A0E69846CAE71C1C6AE7994619
S1132AF0A5E7994646E70222524291444144E0E662
S1132B00F0B55F4656464D464446F0B40D1C85B0BC
S1132B10061C924698460290019103921F1C141CB5
S1132B208346A946002B59D1AA4269D9101CFFF744
S1132B30EDFD00280AD020231B1A311CD940854002
S1132B400B1C2B43864084409946B346250C230432
S1132B501B0C291C48469846FDF738FD4646071CC1
S1132B604643291C4846FDF775FD5A460904130CD3
S1132B7019438E4209D909197B1E8C4200D957E1A9
S1132B808E4200D854E1023F0919891B8946081C6A
S1132B90291CFDF71BFD43464343061C291C4846DC
S1132BA09846FDF757FD5A46130409041B0C1943B4
S1132BB0884508D90919731E8C4200D936E1023EB2
S1132BC0884500D832E1380430430027391C05B069
S1132BD03CBC90469946A246AB46F0BD019A93424E
S1132BE062D8181CFFF792FD041E60D1019B9F421E
S1132BF000D22CE1029F03998F4260410027E5E750
S1132C00002A04D101200021FDF7E0FC041C201C53
S1132C10FFF77CFD002800D0B9E023042D1B1B0C1A
S1132C20A946260C98460127311C4846FDF7CEFCE0
S1132C3041464143051C8A464846311CFDF70AFDBE
S1132C405A460804130C1843824507D900196B1E11
S1132C50844202D8824500D910E11D1C5346C31A90
S1132C60181C311C9A46FDF7B1FC4146414381468C
S1132C7088465046311CFDF7EDFC5A4613040904FE
S1132C801B0C194388450BD94B460919013B8C424F
S1132C9000D9CFE0884500D8CCE002235B429944B8
S1132CA028044946084391E7002700208EE72023A3
S1132CB01B1A424657468240DF4017435246824021
S1132CC00192321CDA40291CD9408540131C2B4345
S1132CD002933D0C3B041B0C8846081C291C9A4695
S1132CE0FDF774FC534643438146291C40469B46EA
S1132CF0FDF7B0FC029A0904130C19438B4506D95D
S1132D004B46C919013B8F4200D8ABE099465A465D
S1132D108A1A101C291C9346FDF758FC534643435A
S1132D20291C804658469A46FDF794FC029A0904E9
S1132D3015042D0C29438A4506D94346C919013B7C
S1132D408F4200D886E098465746CF1BBA4649467C
S1132D50019F0804424610433D042D0C03043F0C1C
S1132D601B0C020C291C594355437B437A43EB1833
S1132D700F0CDB198C469D4202D980277F02D219A1
S1132D801D0C521992455FD356D000271EE720230D
S1132D901B1A311C2F1CD940DF4085400B1C84407A
S1132DA02B4386400193B3462304260C1B0C381C8A
S1132DB0311C9846FDF70AFC42464243051C311C6F
S1132DC0381C9146FDF746FC019F09043B0C19434E
S1132DD0894507D909196B1E8C424DD889454BD9B1
S1132DE0023D09194A468A1A101C311C9246FDF705
S1132DF0EDFB43464343071C311C50469946FDF7FF
S1132E0029FC019A090413041B0C1943894507D9A9
S1132E1009197B1E8C422DD889452BD9023F0919EB
S1132E204B46CB1A2D0499462F43FDE61E1CCAE6D9
S1132E301F1CAAE6994633E761460A041B04120CD8
S1132E409B18A6409E42A0D201380027BEE6002768
S1132E500120BBE68A4500D875E702235B4298440B
S1132E60C91971E78B4500D850E702235B429944A6
S1132E70C9194CE71F1CD3E71D1CB3E7023D001919
S1132E80ECE6C04607B5074B01901A78002A06D035
S1132E90586801A99B6801229847012001E001209C
S1132EA040420EBD8CE0FF1FF7B5204C1E1C257858
S1132EB00F1C0123002D37D122709A421AD0022A06
S1132EC031D16060684603F075F96946321C606868
S1132ED0009703F095F863688022996812030A4307
S1132EE09A6099688022D2020A439A60104BA360C8
S1132EF0104B15E06060684603F0BEFE6946321C64
S1132F006068009703F03CFE63680821DA780A439E
S1132F10DA70DA7804210A43DA70074BA360074BAE
S1132F20E3602B1C00E00423181CFEBD8CE0FF1F93
S1132F302D62000045620000A96C0000C16C000015
S1132F4010B50A4C0020237883420ED0012B05D003
S1132F50022B09D1606803F00DF902E0606803F008
S1132F6071FE0020207000E0042010BD8CE0FF1FE3
S1132F700FB4F0B5B84B9FB01B78002B01D100F013
S1132F805AFC002425AB1193009309940A94271C3E
S1132F900B94261C0294249D00202856002801D15D
S1132FA000F047FC252801D000F037FC00252499C7
S1132FB0019501228A560B1C2B2A08D1022302E018
S1132FC0302A16D10823019C1C43019407E02B2AC4
S1132FD007DD2D2AF4D10123019D1D430195013103
S1132FE0E7E7202A01D10423F6E7232A01D110239D
S1132FF0F2E700240894012159565A1C081C303861
S1133000092807D8089D0A236B43303B5B180893B3
S1133010131CF0E7062404942E2910D100250495EE
S113302001215156131C081C30380132092806D8D6
S1133030049C0A236343303B5B180493F0E70122AA
S11330409A56682A02D06C2A09D018E002229A56AD
S1133050682A01D0402207E0023320220CE0022239
S11330609A566C2A05D08022019D0133154301959F
S113307005E0802202335200019C144301945D1C3C
S11330805B7824955CB206930594642C17D0692C64
S113309015D0069D20239D436BB2462B00D19BE0A7
S11330A0582B00D198E0069B6F3B012B00D893E08E
S11330B0622C00D190E0752C00D065E38CE0019E79
S11330C0F60508D5009A072307329A43141C0834DE
S11330D0009418CA04E0009D2B680435DC170095A1
S11330E015AA002111701A1C22438A4205D16B468D
S11330F0302255331A70012628E001201D1C261C9D
S113310002900A220023281C311CFDF74DFB0A22E1
S113311000230E900F91FDF78BFB2A1C331C121A0F
S11331208B4130200021002B02DA801A994101E002
S113313080185941029D15ABE8542E1C01350295A7
S11331400F9B0E9D2B4301D00F9EDAE715ADAD19F1
S11331500295002C02DA01362D250BE0019C022594
S1133160254002D001362B2504E0019C640701D5DB
S113317001362025019C240712D5002D03D0281CDC
S1133180FFF780FE01373C1CF31B089D1B19AB4263
S113319004DA3020FFF776FE0134F5E72E1C4DE308
S11331A0019CE40712D43C1CF31B08981B198342AE
S11331B004DA2020FFF766FE0134F5E7002D00D184
S11331C03CE3281CFFF75EFE013437E3002D03D0F7
S11331D0281CFFF757FE0137069C20239C43462CEE
S11331E000D01FE1009B0722073393431D1C0835C1
S11331F0009500221C685D6815AB1A70201C291C00
S1133200124B114A06940795FDF7A0FA061E05D045
S11332106B46302255331A700126B7E00698079999
S113322012AA03F0B9FE041C0D1C0498864215D0A2
S1133230201C291C064A074BFEF7ACFB0136041C74
S11332400D1CF2E7C046C04600000000000000006C
S113325000000000000024408CE0FF1F069807993E
S1133260C84BC74AFDF796FA00281FD0C64AC74B79
S1133270201C291CFDF702FC041C04980D1CFFF7FC
S1133280BFF9021C0B1CC248C24903F0C5FE021C54
S11332900B1C201C291CFDF77DFA002827D012984E
S11332A01399BD4ABD4BFDF7E9FB1EE0B64AB74B87
S11332B0201C291CFEF7FEFD041C04980D1CFFF7BE
S11332C09FF9021C0B1CB648B64903F0A5FE021C6C
S11332D00B1C201C291CFDF749FA002807D0129862
S11332E01399AD4AAD4BFEF7E5FD129013910026FC
S11332F0049A964224D0A64AA64B201C291CFDF70A
S1133300DFFE02900391FDF7D7FA0A220023FDF7AE
S11333108FFAFDF715FB0B1C021C291C201CFEF761
S1133320C9FDFFF7FBF8031C3033002801DA302312
S11333301B1A15A98A1953700136029C039DD7E7FD
S113334055236B449D192E232B7012981399FFF764
S1133350E5F8041E03D130236B70023616E0049E98
S11333600136201C0A21FDF77FF90A234343E41A9E
S1133370231C3033002C01DA30231B1B049C2A1B32
S113338093550136002801D0041CEAE715ADAD19A8
S1133390069807997B4B7A4A0295FDF7DDF90028D8
S11333A002D001362D250BE0019C0225254002D0D8
S11333B001362B2504E0019C640701D50136202544
S11333C0019C240712D5002D03D0281CFFF75AFDB9
S11333D001373C1CF31B089D1B19AB4204DA302057
S11333E0FFF750FD0134F5E72E1C29E2019CE407A8
S11333F012D43C1CF31B08981B19834204DA2020C6
S1133400FFF740FD0134F5E7002D00D118E2281C38
S1133410FFF738FD013413E2002D03D0281CFFF719
S113342031FD0137059C582C05D0782C00D0E4E000
S11334300025029501E0012602968023019C5B0091
S113344023400AD0009B0722073393431D1C1E68A8
S11334500835049509965B6805E0009D009C2D687D
S11334600434049409950A93002215AB1A700A9E39
S1133470099B3343934205D16B46302255331A706E
S113348001243FE00120099A0A9B84461D0919077B
S113349014090C432E01210F301C08432101009410
S11334A00E950D900C91141C1D1C0C980D99241A4A
S11334B08D4106940795002D06D1092C04D830209F
S11334C00021221C2B1C0FE0029C41200021002C17
S11334D001D1612000210A225242D317069D079E82
S11334E0AD185E412A1C331C12184B41644615ABBF
S11334F0E2540E9E009B0125AC44334302D0009A53
S1133500331CC3E715AD2D19019E069508253540DA
S11335101023002D1DD000251E420BD03020FFF7B4
S1133520B1FC029D7820002D00D05820FFF7AAFCA2
S113353002370125089E00970099E31B089A5B183F
S1133540934246DA3020FFF79DFC0098013000904A
S1133550F2E7019EF6073AD4019D261C1D400E9504
S113356000D002360097009DF31B089C5B19A34210
S11335701ADA2020FFF786FC009C01340094F2E75D
S11335800000000000000000000000000000E03F18
S11335900000000000002440000000000000F03F94
S11335A000000000000024C00E9C0025AC4210D096
S11335B03020FFF767FC029D7820002D00D05820B2
S11335C0FFF760FC009C01250234009401E00097A1
S11335D0261C019CE40617D5002D15D13020FFF7D9
S11335E051FC029D7820002D00D05820FFF74AFCA2
S11335F0009C02360234009406E0009D029C04956F
S11336000125009706940295059C6F2C09D1049D11
S1133610049C2D680026043409950A960494082510
S113362025E0059C622C09D1049D049C2D6800268C
S1133630043409950A960494022518E0059C702C1C
S113364009D1049D049C2D680026043409950A962A
S1133650049410250BE0059C752C0AD1049D049C50
S11336602D680026043409950A9604940A250B95BE
S113367006E0059C622C03D0059C702C00D0E1E090
S113368015AB00221A700A9D099B2B43934205D166
S11336906B46302255331A70012631E0099C0A9D8D
S11336A001270B9A0023201C291CFDF7A1F80B9A73
S11336B0002305900691FDF7BBF8221C2B1C121A5F
S11336C08B41002B03D130200021092A0BD9029E03
S11336D061200021002E01D0412000210A246442EF
S11336E0E51712196B4112184B4115ABFA54059C9E
S11336F0069B3E1C23430137002B01D0069DD0E7D7
S113370015AD019CAD19069524070ED5009C009DAE
S1133710731B089D1B19AB4204DA3020FFF7B2FB80
S11337200134F4E700942E1C0FE0019CE4070CD450
S1133730009C009D731B089D1B19AB4204DA2020DA
S1133740FFF7A0FB0134F4E70094069C0294069C66
S1133750009D6319029C20781F1B002806D0029D3F
S113376040B2013D0295FFF78DFBF0E7019D3C1C43
S1133770ED0757D5331B089DDB19AB4252DA2020E5
S1133780FFF780FB0137F5E7059C632C09D1009D09
S1133790009C00200435205604950137FFF772FB86
S11337A040E0059D732D37D1009D009C2D680434A5
S11337B004940095002D35D0281C04F090FE019C43
S11337C001231C40051C061C0194002C0BD13C1C3D
S11337D0EB1B08981B19834204DA2020FFF752FBE5
S11337E00134F5E7271C3C1C0099CB1B185D00280D
S11337F004D040B2FFF746FB0134F5E7019A271CD9
S1133800002A0FD02B1B0898DB1983420ADA2020E8
S1133810FFF738FB0137F5E70598FFF733FB009C0A
S113382001370494249D049C013524950094FFF7EA
S1133830B2FB381C0AE00120404207E0271CCBE41D
S1133840271CEFE5752C00D07FE719E71FB0F0BC0B
S113385008BC04B01847C04613B5084B1A78002AB0
S113386009D06C4607345868211CDB68012298474C
S11338700020205601E00120404216BD8CE0FF1FCD
S1133880064B08229978114202D099780A439A701B
S1133890034A882300215B01D150704700D00740C0
S11338A00070044008B5002804D10A480A490B4AAC
S11338B00B4B05E0002905D106480A49074A0A4B83
S11338C001F096FF8B7803774B784377181E00D06E
S11338D0064808BD138600009A020000A785000070
S11338E0258600009B0200003C860000242C00007A
S11338F0F0B585B06F460F370024061C0191151CE6
S11339003C70A04205D1E12115484900154A164BE7
S113391008E0164B013A9A4208D9E2211048114AAC
S1133920134B490001F064FFA54215D93278114BBD
S11339309200D35864201A6933796434DA40131C32
S1133940012213403B7000F0A4FE3B78019A93429D
S1133950EAD10020A54200D8074805B0F0BDC04612
S113396013860000708B000055860000FEE0F5050C
S11339706C860000B8850000262C0000F7B5041CF6
S11339800F1C002805D19B2127484900274A284BB2
S113399006E0002906D138212348244A254BFF316B
S11339A001F026FF8B68002B05D19C211E4849009D
S11339B01E4A214BF4E7027D204B9200D358012686
S11339C01A69037EDA40324205D13C211648FF31A0
S11339D0164A1B4BE4E7031C0C33181C311C194A10
S11339E00193FFF785FF051E17D1207D217E321C30
S11339F000F0BEFE291C0198124AFFF779FF051E4C
S1133A000BD12068391C00F003FF051E05D1019875
S1133A10311C0C4AFFF76CFF051C207D217E01221E
S1133A2000F0CEFE281CFEBD138600007885000041
S1133A302586000095860000AF860000B88500004A
S1133A40C986000080841E00F7B5051C0C1C161CDA
S1133A50002805D1B9213C4849003C4A3C4B06E0CA
S1133A60002906D174213848384A3A4BFF3101F015
S1133A70BFFE88680090002805D1BA213248490069
S1133A80324A354BF3E72A7D344B9200D358012751
S1133A901A692B7EDA403A4205D1BB212A48B94043
S1133AA02A4A2F4BE3E70868009AFF2104F00FFD30
S1133AB02B1C0C33321C181C00210193FFF718FF38
S1133AC0061E39D1287D297E3A1C00F051FEA760DC
S1133AD02868211C00F09CFE061E2DD16268009906
S1133AE01378FF20A36001408B4201D8002B06D13C
S1133AF0287D297E012200F063FE1A4E1CE0013B62
S1133B00A360236801320133236062602868211CAA
S1133B1000F07EFEA368061C0133A3602368013B0A
S1133B2023606368013B6360002805D10198391C58
S1133B300D4AFFF7DDFE061C287D297E012200F0D8
S1133B403FFE301CFEBDC046138600008785000082
S1133B502586000095860000AF860000B885000029
S1133B6033870000252C000080841E007FB5089E4A
S1133B70151C0022041C00930196029103929042AA
S1133B8005D1F52119484900194A1A4B06E00029C4
S1133B9006D1EC211548164A174BFF3101F028FED7
S1133BA0002B05D1F62111484900114A134BF5E7C2
S1133BB06946FFF7E3FE002815D1002D13D0002E2F
S1133BC005D1FC210948FF31094A0D4BE6E7201CC9
S1133BD06946099A0295FFF737FF002803D1019936
S1133BE0201CFFF75FFE04B070BDC04613860000C2
S1133BF0ED8500002586000077870000848700009B
S1133C009E87000010B50C1C411E172905D98D2173
S1133C1011484900114A124B06E00C2C06D91C210C
S1133C200D480E4A0F4BFF3101F0E2FD002B05D188
S1133C308E2109484900094A0B4BF5E7A11C19706C
S1133C405870002C06D0002A04D0111C981C221C89
S1133C5004F034FC10BDC04613860000A98B00009C
S1133C60B887000071880000D987000010B5141CC3
S1133C70002804D113481449144A154B05E00029BF
S1133C8005D110481349114A134B01F0B1FD4B689B
S1133C90002B05D1AD210B4889000C4A0F4BF4E7EA
S1133CA00278033AD2B20A70A24201D90C4808E061
S1133CB0002A05D0C11C181C04F000FC002000E000
S1133CC0101C10BD13860000B20200008A8B000095
S1133CD03C860000B3020000EE8700000988000063
S1133CE0252C000008B5002805D105480549064AD9
S1133CF0064B01F07DFD002303700C23437008BDC7
S1133D001386000013030000FF8500002F880000C5
S1133D10F0B595B01E1C1AAB1B78071C151C081CAB
S1133D200593002F04D13A483A493B4A3B4B06E0FD
S1133D304B1E172B05D936483949374A394B01F000
S1133D4057FD002A05D1CC2131488900324A364B2F
S1133D50F5E711780C2904D92D4834492E4A344BFF
S1133D60EDE75268039202280CD01023041C9C43F4
S1133D70042C07D0092805D00E2803D0031C103BBF
S1133D80012B11D8039A002A0ED1022838D010230F
S1133D90041C9C43042C33D0092831D00E282FD086
S1133DA0031C103B012B2BD90223021C9A43012A2A
S1133DB00BD00B2809D012235B421B185A1E9341C7
S1133DC01A2404935B421C4000E00024039A06ABCF
S1133DD0FFF718FF2978174B02310DAD0193C9B2D3
S1133DE00095381C221C06ABFFF7C0FE002E0DD038
S1133DF000280BD1281C311C059AFFF737FF05E07A
S1133E00CD2103488900044A0B4B98E715B0F0BD57
S1133E10138600002E030000588B00002586000046
S1133E202F030000B8870000498800003103000018
S1133E306488000000879303858800001FB5041E72
S1133E4005D10E480E490F4A0F4B01F0D1FC002159
S1133E500A1C03AB0120FFF7D5FE0C4B0022009295
S1133E600193022103AB201CFFF780FE041C642095
S1133E7000F0FAFB201C04B010BDC04613860000FD
S1133E8053030000808B00002586000080841E0000
S1133E901FB5041E05D10B480B490C4A0C4B01F00D
S1133EA0A7FC00210A1C03AB0320FFF7ABFE094B60
S1133EB0002201930092201C022103ABFFF756FE5F
S1133EC004B010BD138600006B030000678B000074
S1133ED02586000080841E0030B5051C8BB00C1CA8
S1133EE0002804D118481949194A1A4B06E0002938
S1133EF006D1F7211448164A174B890001F078FCC3
S1133F000978002902D06268002A04D10E481349B6
S1133F100F4A134BF2E7042002ABFFF773FE21783C
S1133F20104B06AC02310193C9B202AB0094281CB9
S1133F300322FFF71BFE2378032B02D0002800D1B5
S1133F4009480BB030BDC04613860000DB030000F7
S1133F509A8B00002586000049880000DD030000DC
S1133F60BE8A0000C0E1E400252C0000F0B589B051
S1133F7002AD071C0C1C281C1F49052204F09EFAE4
S1133F80002F04D11D481E491E4A1F4B06E0002C79
S1133F9006D19C2119481B4A1C4BC90001F028FC7E
S1133FA000232370022005212A1C04ABFFF72AFEFC
S1133FB0174B06AE01930096381C0721082204AB68
S1133FC0FFF7D4FD002814D13378082B01D0114811
S1133FD00FE001232370031CF218D278E95CD2436A
S1133FE0D2B2914202D00023237002E00133052BA8
S1133FF0F2D109B0F0BDC046F08400001386000081
S1134000DF04000099850000258600001D8B000058
S113401080841E00252C000030B5051C85B00028C6
S113402005D110481049114A114B01F0E1FB081C5D
S1134030153000210A1CC0B202ABFFF7E3FD0D4BA3
S113404003AC01930094281C0221032202ABFFF766
S11340508DFD002803D12378032B00D0064805B03A
S113406030BDC046138600004B050000CC8500001F
S11340702586000080841E00252C0000F0B587B042
S11340806F460F370023041C0D1C3B70984205D16A
S1134090B8211F4889001F4A1F4B05E0002905D19C
S11340A01B481E491B4A1E4B01F0A2FB0126067742
S11340B04377311C0C301B4AFFF71AFC002825D12A
S11340C0201CFFF7BBFE002820D1201C391CFFF761
S11340D04DFF00281AD13B78002B01D1124815E07E
S11340E02978201CFFF798FF00280FD16A1C0E20A6
S11340F0311C04ABFFF786FD05AB00930B4B03218A
S11341000193201C0A1C04ABFFF730FD07B0F0BD7F
S113411013860000E585000025860000E10200000A
S11341202F880000404B4C00272C000080841E0088
S113413010B5426888B0041C00290FD1806801AB17
S113414001900120187159719971D87104A9181C32
S1134150039200F0E7FA05CC04A900E0006800F03F
S1134160AFFA08B010BD000070B5002805D10D48A5
S113417057210D4A0D4B01F03BFB02780C4B92008A
S1134180D158057901224C69161CAE40B4434C61E8
S1134190017A8900CB58017B8A405A6059690A43E5
S11341A05A6170BDDA8B0000CC8B0000F28B0000EA
S11341B0B88B000008B5012808D113B29208002B6F
S11341C001DB92B202E0C0231B021A4312B2081CA4
S11341D050436421FCF748FA00B208BDF0B589B039
S11341E002AC6E46F271051C0F1C1822201C002123
S11341F004F06DF92B790736237128680123211CFB
S11342002661A7602373636101F0B8FD09B0F0BDB6
S113421070B54B78051C0C1C202B05D90948FA21D4
S1134220094A0A4B01F0E4FA0A7809211A43FFF714
S1134230D5FFA278061C0A21281CFFF7CFFF3043C4
S113424070BDC0460A8C0000FD8B0000238C00006A
S1134250F0B587B0041C0F1C161C684600211822F8
S11342601D1C04F034F923796A4613712068012374
S113427069460496537102971373059501F07EFD08
S113428007B0F0BDF0B585B06C461F1C0023E37386
S11342900F3401920123221C061C0D1CFFF7D8FFCA
S11342A02278019BBA431F4000903A43301C291CDA
S11342B02270FFF793FF009B184305B0F0BD70B563
S11342C04A780B780D1C511E8A4112011A431D2194
S11342D0041CFFF783FF3F21061C6888FCF776F96E
S11342E01F21C2B27F23201CFFF7CCFF2A7906438B
S11342F02021201CFF23FFF7C5FF351C1022054396
S11343000E21201C131CFFF7BDFF284370BD08B508
S113431043790A1C012B0BD1012907D0002903D0B2
S1134320022905D1612302E0182300E030238371C0
S11343300E21FFF753FF08BDF7B501248C40E4B20A
S11343400E1C231C171C2D21221C051CFFF79AFF91
S1134350B7400190FAB2281C231C2E21FFF792FFCC
S1134360019B1843FEBD08B50A1C01232A21FFF74F
S113437089FF08BD08B52B214022FFF72FFF08BD98
S113438070B50B680D1C03600B79041C03714B7929
S1134390437100238371FFF7EDFF061CFA204000F0
S11343A000F050F8E979201CFFF7B1FF6B79012187
S11343B05A425341AA795B000A4306431A43201C1C
S11343C02A21FFF70BFF304370BDF7B506230D1C00
S11343D06A460121041CFFF73BFF6B461A785B78A1
S11343E01202A179061C1A436079FFF7E3FE6F46B7
S11343F02880BA78FB781202A17960791A43FFF712
S1134400D9FE68803A797B7912026079A1791A43DE
S1134410FFF7D0FEA880301CFEBD10B5041C01F0CF
S113442045F9FA218900FCF7D1F803239843031CCA
S1134430002C06D0181C0438C046FCD1013CA4B2A0
S1134440F6E710BD10B5041C01F030F9FA2189001B
S1134450FCF7BCF8FA2160438900FCF7B7F807239E
S1134460984304230343181C0438C046FCD110BDF0
S1134470F0B589B002AC6E46F271051C0F1C18220F
S1134480201C002104F023F82B79073623712868B7
S11344900123211C2661A7602373636101F06EFC74
S11344A009B0F0BDF0B587B0041C0F1C161C68469B
S11344B0002118221D1C04F00AF823796A4613719E
S11344C02068012369460496537102971373059576
S11344D001F054FC07B0F0BDF0B585B06C461F1C6C
S11344E00023E3730F3401920123221C061C0D1CCC
S11344F0FFF7D8FF2278019BBA431F4000903A434C
S1134500301C291C2270FFF7B3FF009B184305B031
S1134510F0BD08B50A1C01231021FFF7DDFF08BD1B
S1134520F8B50B68041C03600B790D1C0371CB797F
S113453043710220FFF771FF201C0021FFF7E9FF00
S1134540AA79061C531E9A41D201201C1121FFF79F
S11345508FFF6B791822071C1A43201C1021FFF7C8
S113456087FF38433043F8BD08B502221021131CDD
S1134570FFF7B2FF08BD37B50D1C6C460021E17191
S11345800734221C0123FFF78DFF23781B07DB0F61
S11345902B703EBD73B50E1C151C1C1C6A460021F5
S11345A00623FFF77FFF69460B784A781B02134303
S11345B033808B78CA781B0213432B800B794A799A
S11345C01B021343238076BD73B500236C46E3714D
S11345D007340D1C221C0F210123061CFFF762FF68
S11345E023782B7072799B182B7076BD38B5051C17
S11345F00C1C00F051FF281C211C00F077FF03065F
S1134600F9D5012C06D9FC2105484900054A064B79
S113461001F0EEF80434A400605980B238BDC046FD
S1134620618C0000418C0000788C000008B5FFF715
S1134630DDFF0A4BC04380B258430949FBF7C6FF6C
S1134640084BFA2158438900FBF7C0FF6423584301
S1134650C821FBF7BBFF80B208BDC046E40C0000D4
S1134660FFFF00007105000010B5041C01F01EF8E6
S1134670FA218900FBF7AAFF03239843031C002CAB
S113468006D0181C0438C046FCD1013CA4B2F6E79D
S113469010BD10B5041C01F009F8FA218900FBF7DC
S11346A095FFFA2160438900FBF790FF07239843A5
S11346B004230343181C0438C046FCD110BD000079
S11346C008B5012804D909483921094A094B05E0EC
S11346D0002905D10548064A074B3A2101F088F81C
S11346E0064B8000C05802F0ABF808BDE38C000014
S11346F0588E0000038D0000128D0000948C000081
S113470008B5002805D104489021044A044B01F05F
S11347106FF802F029F808BDE38C00006B8E0000EE
S1134720128D000038B5051C0C1C002804D10C485F
S1134730CC210C4A0C4B05E0002905D10848094A54
S11347400A4BCD2101F054F8081CFFF7D9FF2B6860
S1134750E3602B79E3706B79A370AB79237138BD77
S1134760E38C0000C78C0000558D0000128D000002
S113477008B5042805D912210C48FF310C4A0D4B09
S113478006E0012A06D989210848094A0A4B49004A
S113479001F02EF8094B80001B58012A02D18A40EF
S11347A09A6002E001228A405A6008BDE38C00004E
S11347B0208E0000988D0000AB8D00009C8C0000C2
S11347C008B5042805D994210C4849000C4A0D4B1E
S11347D006E0012A06D92A210848094A0A4BFF3172
S11347E001F006F8094B80001B58012A02D18A40C7
S11347F05A6002E001228A409A6008BDE38C0000FE
S11348003B8E0000988D0000AB8D00009C8C000056
S11348101FB5012805D940211548FF31154A164B0B
S113482006E0002906D1A0211148124A134B490081
S113483000F0DEFF0B68800000934B6801938B68E7
S1134840C96802930E4B0391C058694602F084F87C
S1134850AF23DB00984207D00023984205D0031E03
S1134860042B02D0074B00E0074B181C05B000BD19
S1134870E38C0000B08C0000038D0000CA8D0000A2
S1134880948C0000752700007427000010B50748B9
S113489001F05EF82021041C044801F087F8A30607
S11348A002D5034B01221A7010BDC04680F00F40A0
S11348B0A0E0FF1F10B50C4801F04AF8041C211CAD
S11348C0094801F073F8E30402D5084B01221A7079
S11348D0E30602D5064B01221A70A30602D5054B46
S11348E001221A7010BDC04600F00F40ACE0FF1F5B
S11348F0ADE0FF1FAEE0FF1F044B80211A680A439E
S11349001A60034B01221A707047C046000004402D
S1134910AFE0FF1F054A00231370054A1370054AD0
S11349201370054A1370054A13707047A0E0FF1F07
S1134930AFE0FF1FACE0FF1FADE0FF1FAEE0FF1FC5
S113494008B50C48FEF714FB0B48FEF711FB0B48A7
S1134950FEF70EFB0A48FEF70BFB0A48FEF708FBBE
S11349600948FEF705FB0948FEF702FB0848FEF775
S1134970FFFA08BD8A8E00009E8E0000C58E0000DE
S1134980F58E0000158F0000428F00006D8F00002F
S11349908E8F00001368187010680B0E4370106837
S11349A00B0C837010680B0AC3701368197170477D
S11349B0864A8023F0B51B069360854B87B019782F
S11349C0051C002902D08348FEF7D2FA824C2378D2
S11349D0002B02D08148FEF7CBFA814B1A78002ACB
S11349E002D08048FEF7C4FA7F4B1A78002A02D01E
S11349F07E48FEF7BDFA7E4B1B78002B02D07D4823
S1134A00FEF7B6FA7C4B01211A68714E8A431A608C
S1134A103278734E20783178734E024333780A43E8
S1134A20DBB2002A10D1002B0ED1694E32786C4EC5
S1134A30207831786C4E024333780A43DBB2002A83
S1134A4023D1002B41D020E02B780027BB420DD18D
S1134A50381C02F095F9694B1868FFF7EFF9071E47
S1134A6004D101232B706648FEF782FA6978002985
S1134A7007D0002F00D08EE0604B1868FFF7CCFA07
S1134A80071C002F00D086E0CFE704AA052313708B
S1134A90002602AB02965B481E710593FEF768FA86
S1134AA04F4B1A782178D2B2331CB14213D1B2429F
S1134AB011D14D4E33782278DBB2002A27D1002B56
S1134AC025D1434E3378002B39D1494B1F78FFB29F
S1134AD0002F60D04EE06E46B3714B4B063618681B
S1134AE0311C00F0F1F90021071C71564748FEF70C
S1134AF03FFA00217156012005AAFFF74BFF3F4BF7
S1134B0004A91868FFF7E8F90743D2D043E0404B03
S1134B1000211A683F48FFF789FD061C311C3E48F6
S1134B20FEF726FA0320311C05AAFFF733FF334BA7
S1134B3004A91868FFF7D0F9071EC2D02BE06E460F
S1134B400023F380354B06361868311C00F0F3F966
S1134B503188071C3248FEF70BFA3188022005AA77
S1134B60FFF718FF254B04A91868FFF7B5F90743A9
S1134B70ABD010E02B78002B09D0204B1868FFF73E
S1134B8087F9071E07D12870012002F0F9F825489B
S1134B90FEF7EEF900272378002B03D080230B4A7D
S1134BA01B06536072B60A4E3478FFF7B3FEE4B2C4
S1134BB062B6002F06D1002C04D0184B186800F000
S1134BC0A6F9071C381C07B0F0BDC04600F10F4021
S1134BD0A0E0FF1FB18F0000AFE0FF1FC98F0000EE
S1134BE0ACE0FF1FEC8F0000ADE0FF1FF98F000069
S1134BF0AEE0FF1F0690000000000440B0E0FF1F7D
S1134C001390000039900000A4E0FF1F679000009B
S1134C109CE0FF1F00B0034082900000A8E0FF1F4B
S1134C2099900000B1900000F0B5A1B0002309AC48
S1134C300BAD06AE07930893099363600B936B6007
S1134C403380B370864B07A91960864B18AA1C6081
S1134C50854B864F1A60864B2A223D601A7002F0FB
S1134C600BF902F06FF802F053F800F01DFB7E4FD1
S1134C70011E01D07F480BE07F48FEF779F9291C1B
S1134C8007A8221C18AB00F097F9011E60D07B48DE
S1134C90FEF76EF900F00AFD1E21FBF797FC0023D6
S1134CA0834201D20133FBE78022754B1206DA609E
S1134CB0F5E70D2809D07348211CFEF759F9251C86
S1134CC0FEF7CAFD041E0A2CF3D16F48FEF750F913
S1134CD02B1C303B052B4ED8EDB22B1C303BDBB2EA
S1134CE0002B39D100230D930E931A220FAB11AC74
S1134CF01A705C600092082138680DAAFFF708F862
S1134D00011E00D0AAE06148FEF732F9604DE17857
S1134D10A278281CFEF72CF9617822785D48FEF70A
S1134D2027F95D48FEF724F921796279281CFEF7FA
S1134D301FF9A179E279281CFEF71AF9217A627A1F
S1134D40281CFEF715F9A17AE27A5448FEF710F907
S1134D50FFF7F6FD0025B3E7042B02D9052B0ED08F
S1134D60C0E7313DE9B238687170FFF755F9011EAB
S1134D7074D14B4800E04B48FEF7FAF8E8E700230B
S1134D80012273703270B37072B6FFF7C3FD62B65E
S1134D90B07803285ED8FBF70FFC02071F2B002016
S1134DA000F032FA012321E03F4B1A78002AEFD0B9
S1134DB02E4D00222D681A70281C039500F0A7F8C8
S1134DC0041C72B6FFF7A6FD62B62D4B80221206B4
S1134DD05A600223B3703AE0E120C00000F014FAF4
S1134DE03248FEF7C5F800F039FA0323B370CFE771
S1134DF02F4C2D4B27782F481978027804912E498F
S1134E0094460D782D4A05951578EDB20295049DCA
S1134E102F4365462F43059D2F4302D1029D002D4C
S1134E20B6D02478057808781278291C2143D2B2A8
S1134E30014301D1002A01D0002303E01B78002B99
S1134E4008D00223301CB370FFF7B2FD041C002C01
S1134E5001D19DE701241A48211C19E7194817E7D5
S1134E60A4E0FF1F9CE0FF1FB0E0FF1FA8E0FF1FAE
S1134E7000E00740D6900000179200000B9100005C
S1134E8000F10F4041910000C991000044910000DD
S1134E90549100005E91000069910000739100003C
S1134EA080910000B0910000AFE0FF1FCC910000A2
S1134EB0A0E0FF1FACE0FF1FADE0FF1FAEE0FF1F4F
S1134EC0E59100006892000073B56D46013500233A
S1134ED0041C0E1C2B70FFF747FB002816D1201C66
S1134EE0291CFFF748FB002810D12B78002BF6D0A3
S1134EF069466B46023101AA0633201CFFF74AFBC0
S1134F00311C051C201CFFF75FFB284376BDF7B559
S1134F1000256C46E5710734221C1E210123061C62
S1134F20FFF796F9291C071C221C301C0123FFF7EC
S1134F308FF93843FEBDF0B587B06C4600260F34B8
S1134F400191221C012304AD311C009026700496AB
S1134F50AE80FFF77DF922783F2313402370371C7E
S1134F602378BB4216D90098291CFFF72EFA002893
S1134F7012D10222A95E00202B5E04202A5E5B432C
S1134F8049435243CB189B189E4200D21E1C7B1CE3
S1134F90DFB2E5E7002400E0041C301CFBF71EFD33
S1134FA0FDF762FB02F0F0F9FBF766FC019A108052
S1134FB0201C07B0F0BD0000F0B589B005AC051C9D
S1134FC0201C1E1C0091019200F05CFD814A00200F
S1134FD0626000F07BFB211C021C7F4800F0A4FDF2
S1134FE0002701237D481F21221C2780237000F005
S1134FF087FC7B4A8023DB0513607A480C21221C42
S11350006770277000F07CFC76480421221C00F0B5
S113501077FC74480521221C00F072FC704A80233E
S11350201B06136070480521221C6770277000F06E
S113503067FC01236D480521221C2370677000F072
S11350405FFC6A480621221C00F05AFC67480721CD
S1135050221C00F055FC604A0E23059223710122A4
S11350601423281C211CA2716771E371FFF758FAFD
S1135070051EBD4200D0AAE0291C09225C4D201C5B
S113508003F025FA201C00F095F903230122281CC3
S1135090211C2371227000F035F92B6A40229343BE
S11350A02B62281C00F0AEF9019A0323051C13603F
S11350B017715771B84200D089E0201CFEF712FE28
S11350C003233373022303223361301C0423327518
S11350D0B3610C30FFF748F83E4B281CB36000F076
S11350E0F5FA0122291C70603260301CFFF720F8A9
S11350F0301C211CFEF7C2FF051EBD4267D1364B92
S113510003AE23601D2323713023A3710E23337058
S1135110FA230122DB006271E271327172707380D2
S11351206A46C023137250722023211C0098937284
S1135130FFF726F9291C071C0098FFF714F9311C06
S113514007430098FFF7BBF802A907430098FFF74D
S11351505FF80521074301220098FFF7EDF80121CC
S113516007430098FFF7FFF807432FD1132000F0FF
S1135170ADFA011C1F48FBF729FA002806D1A82123
S11351801D4849001D4A1E4B00F032FB1D4E201CD9
S113519000F000FF0623301C211CA371257100F0D0
S11351A0BDFE3368012293433360132000F08EFA6E
S11351B0B56033688022134333603368402213435D
S11351C03360074A80235B05136000E03D1C281C04
S11351D009B0F0BDA08601000060064000F10F4058
S11351E000E100E000F00F4080F00F40C0F00F40FD
S11351F000B00340FFFF0000A19200001D930000D7
S1135200B39200000000044070B5061C132000F0A7
S11352105DFA70430C4B984206D9B6210B48FF3116
S11352200B4A0C4B00F0E4FA0B4C012523681320C5
S1135230AB43236000F04AFA4643F609B6B2A660CF
S113524023681D43256070BD7FFF7F00A19200008D
S113525028930000DE9200000000044070B50E4860
S113526000F0C2FF4302FAD50C4CFDF769FE0C4D69
S113527063680C4E2B406360301C01F001FAF37834
S1135280626815408022920015436560042B01D1A9
S113529001F03EFD70BDC046004005400090044052
S11352A0FFF8FFFF00E0074010B5002000F00EFA01
S11352B0041C094801F0DCF900280BD1064BDB780B
S11352C0042B03D0002C04D0013CF7E700208442D7
S11352D000D1052010BDC04600E0074008B5054BCD
S11352E0984205D004484421044A054B00F080FA52
S11352F0002008BD00B003403F930000A9930000C4
S11353005693000038B5041C0D1E05D125484B21C9
S1135310254A264B00F06CFAFFF7E0FF244B80226D
S1135320196812050A431A6029790C228900114070
S11353306A78032313406A791943042A01D010239D
S11353401943EB7860205B0103400B43E9790029A2
S113535001D080210B43A360E3680F218B43042A0F
S113536002D003210A401343AA79002A01D004225F
S11353701343AA78002A01D008221343E360226A67
S1135380297803239A430B40134323622A7A082380
S1135390002A02D0626A134302E0626A9A43131C31
S11353A0636238BD3F930000BB9300007D9300000F
S11353B03C80044008B5002805D10A4887210A4AE0
S11353C00A4B00F015FA01220023032182700271B6
S11353D0042203704170C17042718371C3710372FE
S11353E008BDC0463F930000F99300007D93000080
S11353F0031C006A802210405A6A40231A4200D0DB
S113540018437047026AF8B54023041C00261A4268
S113541003D0026A01269A432262636AC0221343BC
S1135420636223681A0606D4201CFFF7E1FF4106D5
S1135430F7D5012500E00025002E03D0236A402281
S113544013432362201CFFF7D3FF0123410621D419
S1135450002D1FD1E26CA76C666CBA18206C9219EF
S1135460E16B1218A36B5218D21880231B02520846
S11354701A43E262E26EA16E676E8C46266E624447
S1135480E06DD219A16D92191218521852081343E3
S113549023632B1C181CF8BD10B5012905D9A621BE
S11354A00E4849000E4A0F4B06E0002A06D14E2151
S11354B00A480B4A0C4BFF3100F09AF914681F2379
S11354C023405479002C01D0202423431279002A4C
S11354D001D04022134389000B5010BD3F930000BC
S11354E0C69300008C9300007D93000008B5012949
S11354F006D9B12105484900054A064B00F078F960
S1135500890008588023184008BDC0463F93000016
S1135510DD9300008C930000084B022218781040A1
S113552004D19A791207920F012A05D15A780123DE
S11355301A40034B9200D0587047C04600400640C2
S11355401094000008B5084B00201B785BB283421E
S113555009DA064B1868002805D105488621054A52
S1135560054B00F045F908BD0050064004EAFF1F52
S113557018940000559400002F940000124B10B5AD
S11355801C682403A40F022C12D0032C03D0002087
S1135590002C17D102E0FA20800013E0FFF7D2FFBD
S11355A08022031C1202201C93420BD1181C09E018
S11355B0064B1868002805D105489A21054A064B70
S11355C000F016F910BDC0460070044000EAFF1F49
S11355D0189400006C9400003B940000074B416851
S11355E0074A10B599500178C022120389041C6837
S11355F01140044A22400A431A6010BD007004405E
S113560044100000FFFFF3FF38B5074B1D7A1C7EE2
S1135610FFF782FFEDB20723E4B22D076D0F1C40A4
S11356202C19E04038BDC04600400640064B1A7EA7
S113563052B2002A03DB9B791B079B0F01D103485D
S113564000E000207047C04600400640006CDC02C9
S113565010B5104CA3791B079B0F012B06D0002B10
S113566002D0022B09D013E00B4812E0FFF754FFDD
S1135670237A1B075B0FD8400BE0084B18680028FF
S113568007D130210648FF31064A074B00F0B0F835
S1135690002010BD00400640006CDC0204EAFF1F3D
S11356A018940000829400002F94000008B5FFF7BE
S11356B0CFFF044B044AD158090F0131FAF786FF92
S11356C008BDC046441000000070044038B51328DB
S11356D031D8FAF771FF0D0D14301430302427300F
S11356E030302A303030302D2D0AFA20800023E06B
S11356F0FFF7AEFF114B124AD158090F0BE0104DC2
S11357000E4CFFF7A5FF2959090F0131FAF75EFF87
S113571029594903490F0131FAF758FF0CE0FFF703
S11357202DFF09E0FFF70EFF06E0FFF76DFF03E032
S1135730FFF77CFF00E0002038BDC04644100000A5
S11357400070044010B5002806D1AD21244849005A
S1135750244A254B00F04CF8244B9A791207920FF7
S1135760012A1FD0C2780E2152000A401A7204790D
S113577041790722C90122400A43D2B21A765C78E1
S11357808178012294431140221C0A435A70027802
S1135790417892010A43D2B21A70597802784807C4
S11357A011D415E00278012ADCD159780A408178B5
S11357B08A42D7D019783F220A401A709A79120780
S11357C0920FFBD1CEE7022A02D199798807FCD542
S11357D099790907890F8A42FAD1002010BDC04681
S11357E0189400009694000048940000004006407D
S11357F037B5051C0C1C0092191C03482A1C231CD9
S1135800FDF7B6FB00BEFDE7AD94000008B5002827
S113581005D18A210E4849000E4A0F4B08E002794F
S11358200368032A06D9ED210C480D4A0D4B4900A3
S1135830FFF7DEFF12019B18FC33D9688022520463
S11358400A43DA608368002B01D0C168984708BD19
S1135850079500002A9600007C950000159600002C
S1135860EB9400004195000008B5024B1868FFF75F
S1135870CDFF08BDB4E0FF1F08B5024B5868FFF721
S1135880C5FF08BDB4E0FF1F08B5024B9868FFF7D9
S1135890BDFF08BDB4E0FF1F08B5024BD868FFF791
S11358A0B5FF08BDB4E0FF1F094B10B519681C1CF7
S11358B0002904D0074B1868074B1B689847616898
S11358C0002904D0034B5868034B5B68984710BD0C
S11358D0C4E0FF1FCCE0FF1FD4E0FF1F08B5FFF7B3
S11358E0E3FF08BD08B503484421034A034BFFF70F
S11358F07FFFC0466D960000389600008396000036
S113590010B5002A05D10F484B210F4A0F4BFFF762
S11359106FFF14780123002C06D142698B40191CB7
S1135920131C8B4343610CE052788B40002A01D155
S1135930836000E04360012243698A40111C1943DB
S1135940416110BD6D9600006096000085930000D3
S113595008B5104B98420DD00F4B98420CD00F4B0A
S113596098420BD00E4B98420AD00E4B984209D065
S1135970FFF7B8FF002306E0012304E0022302E05E
S1135980032300E00423084A9B009B58A0331868B3
S113599008BDC04600F00F4040F00F4080F00F40BB
S11359A0C0F00F4000F10F404C96000008B5104BBA
S11359B098420DD00F4B98420CD00F4B98420BD00D
S11359C00E4B98420AD00E4B984209D0FFF78AFF3B
S11359D0002306E0012304E0022302E0032300E0A5
S11359E00423084A9B009B58A033196008BDC04695
S11359F000F00F4040F00F4080F00F40C0F00F4027
S1135A0000F10F404C9600001023194202D0C370DD
S1135A10034803E00120084000D002487047C04614
S1135A204F0400004E04000008B5C378DA0602D41F
S1135A3083789A0601D5034B00E0034B1B68984713
S1135A4008BDC046E4E0FF1FE8E0FF1F08B5084BAF
S1135A50984204D0074B984203D1012007E000206C
S1135A6005E00548A621054A054BFFF7C1FE08BD20
S1135A7000600640007006402A9700002598000048
S1135A803F97000008B5002806D1DA210748FF3106
S1135A90074A084BFFF7ACFE074B436000234370F3
S1135AA0837003720123037008BDC0462A97000067
S1135AB00A98000064970000A0860100F0B5002455
S1135AC087B0012504900F1C059202946D42019445
S1135AD00123A34003930026124B7200D15A039A68
S1135AE005985143FAF772FDC31B874200D93B1A4C
S1135AF0AB4203D2019402961D1E02D00136402E01
S1135B00EAD1022C0AD102993F230B4001998A0160
S1135B101343049ADBB2537007B0F0BD0134002D77
S1135B20D6D1F0E7AA960000F8B5041C0D1C171C8A
S1135B30002901D0002A06D1CF2120484900204A5B
S1135B40204BFFF755FEFFF781FF1F4B8000C25823
S1135B501E49130C5B1892B2012019689040021C74
S1135B600A431A60A3787F263340A370A279502396
S1135B701A43A271A279201C1343A3711223E37068
S1135B8069683A1CFFF79AFF697862792023490112
S1135B909A430B4013436371A379AA781E40D20140
S1135BA016432A7A0F23F6B29E4313403343A3715C
S1135BB02B78DB01DBB2A370F8BDC0462A97000046
S1135BC0FB970000719700003898000000700440B3
S1135BD08378382293438370074BC17820220A408C
S1135BE004D0013B9BB2002BF7D102E0101C002B28
S1135BF001D18A20C0007047FFFF0000031CC07859
S1135C009A79C0B2510602D58022D20110439B7901
S1135C10DA0602D580235B011843704770B5161C61
S1135C20041C0D1CFFF7EAFF82060FD4A378302270
S1135C301343A370237BDA07FCD5013E73425E4114
S1135C406D003543EDB22571002000E0004870BDC1
S1135C504C04000070B5041C0D1C161CFFF7CEFF8D
S1135C602023184202D0A2781A421BD063783F2224
S1135C70DBB21A406270A27804210A43A2706370F6
S1135C80C046C046C046C046C046C046237BDA076D
S1135C90FCD5013E73425E416D003543EDB2257182
S1135CA0002000E0004870BD4C04000030B5031C27
S1135CB0D87840B20028FBDA0220D87098781024F3
S1135CC0204398708A18914218D008781871DC78AB
S1135CD002200442FBD0DD781024EDB2D8700020FD
S1135CE0254201D00648DC700124254202D0DC7034
S1135CF0044804E001310028E5D000E0002030BD74
S1135D004F0400004E04000073B56B460733041CB7
S1135D100020187018780130C0B21870E07840B2D2
S1135D200028FBDA0220E070A0781825A843A070B0
S1135D30012A03D1A07808252843A07020790E1CDD
S1135D40C0B21870551E00206B1C15D0E2780223D7
S1135D501A42FBD0E370002D03D1201CFFF738FF5B
S1135D6005E0012D03D1A37808221343A3702379FE
S1135D70013D33700136E7E776BD000070B5041CC1
S1135D800D1E06D1CA214B4889004B4A4B4BFFF7E5
S1135D902FFD4A79817950231943817181790B430D
S1135DA083711223C370E3785BB2002BFBDA2B7B85
S1135DB0002B05D06B79013B591E8B415B421A4085
S1135DC02B682979201C9B0702D5FFF743FF01E0CC
S1135DD0FFF724FF061E6AD12B7B002B2DD0E2781F
S1135DE002231A42FBD0E370E178201CC9B2FFF70A
S1135DF00BFE00282BD12B7BAA68013BDBB22B7353
S1135E00DB00DA40D3B223712B7B002BE7D16B7913
S1135E10012B12D1E27802231A42FBD0E370E1781D
S1135E20201CC9B2FFF7F0FD002810D12979201CED
S1135E300122FFF70FFF061E39D1E3789A07FCD53C
S1135E40E178201CC9B2FFF7DFFD002807D01C4B06
S1135E50061E9E422BD1201CFFF7BAFE27E06B7969
S1135E60002B01D0002015E06B69002BFAD02969C2
S1135E70201C6A69FFF71AFF002803D12B685B070F
S1135E8003D5EFE70E4B984204D10223E370201CA4
S1135E90FFF79EFE6B79061C012B08D16B69002B62
S1135EA005D02969201C6A69FFF72EFF061C301CE7
S1135EB070BDC0462A970000E0970000459A000094
S1135EC04E04000008B5034B03481968FFF7ACFD06
S1135ED008BDC046DCE0FF1F0060064008B5034B68
S1135EE003485968FFF7A0FD08BDC046DCE0FF1F6A
S1135EF00070064008B5054B984205D00448462179
S1135F00044A054BFFF774FC002008BD0000044060
S1135F1062980000A09800007998000038B5051C2C
S1135F200C1E05D117484D21174A184BFFF760FC8A
S1135F30FFF7E0FF164B01211A6802200A431A609A
S1135F40E1782278042389005200194002400A4370
S1135F50A1780820C90001400A43617830209940A3
S1135F6001400A432A60A2797821D2000A402179AB
S1135F7089000B406179134303220A4013436B6089
S1135F8038BDC04662980000409800008593000028
S1135F903880044008B5002805D108486521084A1E
S1135FA0084BFFF725FC0023012203704370837024
S1135FB0C37002714271837108BDC04662980000CB
S1135FC04B9800008593000008B5084B984204D014
S1135FD0074B984203D1012007E0002005E0054863
S1135FE08621054A054BFFF703FC08BD0040054028
S1135FF000500540DD980000B2980000F5980000BC
S1136000F0B589B0041C0E1C069205D14F48C4217A
S11360104F4A504BFFF7ECFBFFF7D6FF4E4B800087
